:1000000045C0000060C000005EC0000080C000006D
:100010005AC00000F3C0000009C1000054C0000035
:1000200052C000002DC300004EC000004CC00000B4
:100030004AC0000000C5000046C0000004C3000024
:1000400042C0000040C000003EC000003CC00000B4
:100050003AC0000038C0000036C0000034C00000C4
:1000600032C0000030C000002EC000002CC00000D4
:100070002AC0000028C0000026C0000024C00000E4
:1000800022C0000020C000001EC0000011241FBEBE
:10009000CFEFD0E1DEBFCDBF11E0A0E0B1E0EEEEEA
:1000A000FAE000E00BBF02C007900D92AE31B1073D
:1000B000D9F721E0AEE1B1E001C01D92A834B2074A
:1000C000E1F794D112C59CCF17B887E886B9089597
:1000D00010921F0110921E01369A349BFECF84B1FC
:1000E00080931F0125B120931E0190E0922B08956B
:1000F000EAE6F0E08081806380838AB782608ABF0D
:100100008AB788608ABF89B7846389BF08951F92C0
:100110000F920FB60F9211240BB60F922F933F93AD
:100120004F935F936F937F938F939F93AF93BF93FF
:10013000EF93FF9380916A0084FF0EC01092280114
:100140001092270181E080932001EAE6F0E08081AF
:100150008F7C806280833FC01092200180912701B4
:10016000909128019C01220F331F880F991F880F3F
:10017000991F880F991F280F391FAFE9B6E4A0D443
:10018000929582958F7089279F7089279093280177
:10019000809327018091270190912801892F6AD4AB
:1001A000809127019091280165D4EAE6F0E08081F2
:1001B000806380838091270190912801069738F011
:1001C00082E090E0909337018093360104C0109252
:1001D0003D0110922901FF91EF91BF91AF919F9145
:1001E0008F917F916F915F914F913F912F910F90E0
:1001F0000BBE0F900FBE0F901F9018951F920F927D
:100200000FB60F9211248F9380912901811105C09F
:1002100081E080932901D89A03C010922901D898CF
:100220008F910F900FBE0F901F9018951F920F92F5
:100230000FB60F9211248F939F938091000190919C
:1002400001018130910519F00297B9F02BC080E5CA
:1002500090E090931801809317018091170190917D
:10026000180190931A018093190182E090E0909315
:100270000101809300018BBB15C084E690E0909350
:1002800018018093170180911701909118019093A4
:100290001A018093190181E090E09093010180930D
:1002A00000018BBB9F918F910F900FBE0F901F90FD
:1002B000189584309105C0F4FC01EE0FFF1FE05C3F
:1002C000FE4F0190F081E02DEE0FFF1FEE5FFE4F1D
:1002D000908195BB21E030E0A90102C0440F551F79
:1002E0008A95E2F740936500089520912E013091A0
:1002F0002F01E0E4F1E0ADECBCECE2D3AC015695AB
:10030000479556954795569547959A01D9D3969511
:10031000879596958795969587959C01220F331F13
:10032000880F991F880F991F880F991F820F931F9D
:10033000481B590B5783468340912E0150912F0142
:100340009A01BED3969587959695879596958795AC
:100350009C01220F331F880F991F880F991F880F48
:10036000991F820F931F481B590B5583448320917B
:10037000300130913101A4D3AC0156954795569583
:100380004795569547959A019BD39695879596954F
:100390008795969587959C01220F331F880F991F8B
:1003A000880F991F880F991F820F931F481B590BA5
:1003B0005383428340913001509131019A0180D39F
:1003C0009695879596958795969587959C01220F8A
:1003D000331F880F991F880F991F880F991F820F4D
:1003E000931F481B590B5183408308952FD36CDE14
:1003F0007FDE81E090E0EED118D087B3806587BBC7
:100400008A9892988FEF84BB9FE0909364008ABB98
:1004100078948091340190913501892BD1F3ECD0FF
:100420001092350110923401F4CF83B7886083BFF6
:1004300083B7846083BF89EF81BF87B7826087BF3E
:1004400085B5886085BD85B5826085BD83E183BD46
:1004500087B7806887BF0895CF93DF931F92CDB78A
:10046000DEB780913D01882311F0DD9A01C0DD984F
:1004700080911601882311F0DE9A01C0DE98CE012A
:100480000196EFD2882311F08981B0D180913C018F
:10049000813069F41DDE9C01A4E6B0E011D32FEF9A
:1004A00033E040E050E0EAD2C9011ED105C080919E
:1004B00017019091180118D10F90DF91CF910895F5
:1004C00080913C01813031F480911E01D3D2809122
:1004D0001F01D0D2809121019091220180912101B0
:1004E00090912201049768F480912101909122015A
:1004F0009C012F5F3F4F3093220120932101D9CEE1
:1005000008951092220110922101089580913201E4
:100510009091330101969093330180933201809141
:10052000320190913301CC9768F010923301109210
:100530003201809130019091310101969093310107
:10054000809330018091300190913101CC9768F017
:10055000109231011092300180912E0190912F0163
:10056000019690932F0180932E0180912E019091FE
:100570002F01489720F010922F0110922E018091A8
:100580002901882301F120912E0130912F018091C2
:100590002A0190912B0128173907A9F420913001E5
:1005A0003091310180912C0190912D01281739074C
:1005B00051F480E55FD282E090E090933701809320
:1005C00036011092290191CE0895809136019091C3
:1005D00037018230910541F481E090E0909337013A
:1005E00080933601DC9A0895892B29F01092370107
:1005F00010923601DC9808952FDF809125019091AB
:10060000260101969093260180932501029728F0F8
:10061000109226011092250153DF809123019091C1
:10062000240101969093240180932301883E9340F6
:1006300048F0109224011092230168DF9BB381E0FF
:1006400089278BBB08951F920F920FB60F9211242A
:100650008F939F93809138019091390101969093E7
:1006600039018093380181E090E0909335018093C7
:1006700034019F918F910F900FBE0F901F9018958E
:100680001F920F920FB60F9211240BB60F922F9359
:100690003F934F935F936F937F938F939F93AF930A
:1006A000BF93EF93FF9391DF80912001882349F05E
:1006B00080912701909128010196909328018093C1
:1006C0002701FF91EF91BF91AF919F918F917F9102
:1006D0006F915F914F913F912F910F900BBE0F90B3
:1006E0000FBE0F901F901895009771F4109218018B
:1006F00010921701109216018FB58F7D8FBD87B7AD
:10070000877F87BFC69808958436910530F084E6C8
:1007100090E090931801809317012FB520622FBDB0
:1007200027B7286027BF21E020931601A0913E0142
:10073000B0913F019C01D3D124E630E040E050E08D
:100740009DD1832F992789BD28BD089520911B0134
:1007500030911C01032E000C440B550B60E074E239
:1007600084EF90E08BD12150310930933F012093E9
:100770003E0180913E0190913F019BBD80913E01E1
:1007800090913F018ABD089580349105B9F034F409
:100790008130910559F0089769F00895811521E09D
:1007A000920781F08115944089F008958EB581609B
:1007B0008EBD08958EB582608EBD08958EB583601E
:1007C0008EBD08958EB584608EBD08958EB585600A
:1007D0008EBD08952FB523622FBD2EB528612EBD85
:1007E000D3DFB4DF87B7886087BF0895982F9F7DD8
:1007F000933439F427E134E030931C0120931B013A
:10080000CFC0943439F427E934E030931C012093AD
:100810001B01C6C0953439F427E235E030931C0142
:1008200020931B01BDC0963439F425E735E03093A1
:100830001C0120931B01B4C0973439F420E236E048
:1008400030931C0120931B01ABC0913439F420E795
:1008500033E030931C0120931B01A2C0923439F481
:100860002CED33E030931C0120931B0199C0893398
:1008700019F580911701909118010A968536910516
:100880000CF0D8C080911701909118010A969093AE
:100890001801809317018091170190911801181683
:1008A00019060CF0C7C08091170190911801909320
:1008B0001A01809319010895803309F58091170179
:1008C000909118010A970AF4B5C080911701909190
:1008D00018010A97909318018093170180911701CE
:1008E00090911801181619060CF0A4C080911701F8
:1008F0009091180190931A018093190108958337FC
:10090000B1F410923D0180911701909118011816D1
:10091000190644F4809117019091180190931A01DF
:1009200080931901109218011092170108958037D1
:1009300061F481E080933D018091190190911A0149
:1009400090931801809317010895883339F490919A
:100950003C0181E0892780933C010895823289F42B
:1009600022E030E0309337012093360190913D0131
:10097000913019F410923D0113C091E090933D0124
:100980000FC0843521F481E080933B0108958135C7
:1009900039F482E080933B0181E08093290108953E
:1009A00090913B019923F9F090913B01913041F4F2
:1009B00090933A0190E090932F0180932E0110C004
:1009C00090913B01923061F490933A0190E09093C2
:1009D0002B0180932A0180912A0190912B014AD00A
:1009E00010923B01089590913A019923B1F09091B2
:1009F0003A01913031F490E09093310180933001CD
:100A000009C090913A01923029F490E090932D0121
:100A100080932C0110923A01089580913D0181113B
:100A200008C08091190190911A0190931801809348
:100A300017018CCE08951F920F920FB60F921124BA
:100A4000C69A0F900FBE0F901F9018951BB888E1A3
:100A50008AB986E2809395001092900087E689B962
:100A600008955F9B05C02CB1FC01208381E00895AF
:100A700080E008955D9BFECF8CB90895A1E21A2E07
:100A8000AA1BBB1BFD010DC0AA1FBB1FEE1FFF1F32
:100A9000A217B307E407F50720F0A21BB30BE40B82
:100AA000F50B661F771F881F991F1A9469F76095C9
:100AB0007095809590959B01AC01BD01CF01089583
:100AC000A29FB001B39FC001A39F700D811D11248F
:100AD000911DB29F700D811D1124911D0895F0DFAD
:0E0AE000B7FF0895821B930B0895F894FFCF83
:100AEE0001003F0006005B004F0066006D007C00B9
:0E0AFE0007007F006700016400640017040019
:00000001FF
